69558FIR0001P 000001000001         335   X 335   S LOCY23078336305009                                           20230223                           2023022311:41                          20230223     0001481400014814000003688686000000000001R N                                                                                                N                            99M298148000000278864                           SCF TAMPA FL 335                                            STD LTRS SCF BC                                                                                                                                                                         Y          20230201202302012023010120230101202302012023020120221201                       O                                       #
69558FIR0001E 000002000001         33603 B 335   C LOCY23078336305009000001                                     20230223                           2023022311:41                          20230223     0000113800001138000000283362            R P                                                                                                N                            336035641298148002787851                        TAMPA FL 33603                                              STD LTR 5D CR-RT BC                               TAMPA FL 33634                                                                                                564                                20230201202302012023010120230101202302012023020120221201                       O                                       #
69558FIR0001E 000003000002         33607 B 335   C LOCY23078336305009000001                                     20230223                           2023022311:41                          20230223     0000153500001535000000382215            R P                                                                                                N                            336075641298148002787861                        TAMPA FL 33607                                              STD LTR 5D CR-RT BC                               TAMPA FL 33634                                                                                                564                                20230201202302012023010120230101202302012023020120221201                       O                                       #
69558FIR0001E 000004000003         33609 B 335   C LOCY23078336305009000001                                     20230223                           2023022311:41                          20230223     0000141800001418000000353082            R P                                                                                                N                            336095641298148002787871                        TAMPA FL 33609                                              STD LTR 5D CR-RT BC                               TAMPA FL 33634                                                                                                564                                20230201202302012023010120230101202302012023020120221201                       O                                       #
69558FIR0001O 000005000004         34683 B 335   C LOCY23078336305009000001                                     20230223                           2023022311:41                          20230223     0000072500000725000000180525            R P                                                                                                N                            346835641298148002787881                        PALM HARBOR FL 34683                                        STD LTR 5D CR-RT BC                               TAMPA FL 33634                                                                                                564                                20230201202302012023010120230101202302012023020120221201                       O                                       #
69558FIR0001E 000006000005         34695 B 335   C LOCY23078336305009000001                                     20230223                           2023022311:41                          20230223     0000152000001520000000378480            R P                                                                                                N                            346955641298148002787891                        SAFETY HARBOR FL 34695                                      STD LTR 5D CR-RT BC                               TAMPA FL 33634                                                                                                564                                20230201202302012023010120230101202302012023020120221201                       O                                       #
69558FIR0001E 000007000006         34698 B 335   C LOCY23078336305009000001                                     20230223                           2023022311:41                          20230223     0000132100001321000000328929            R P                                                                                                N                            346985641298148002787901                        DUNEDIN FL 34698                                            STD LTR 5D CR-RT BC                               TAMPA FL 33634                                                                                                564                                20230201202302012023010120230101202302012023020120221201                       O                                       #
69558FIR0001E 000008000007         34698 B 335   C LOCY23078336305009000001                                     20230223                           2023022311:41                          20230223     0000155300001553000000386697            R P                                                                                                N                            346985641298148002787911                        DUNEDIN FL 34698                                            STD LTR 5D CR-RT BC                               TAMPA FL 33634                                                                                                564                                20230201202302012023010120230101202302012023020120221201                       O                                       #
69558FIR0001E 000009000008         336   C 335   C LOCY23078336305009000001                                     20230223                           2023022311:41                          20230223     0000077300000773000000192477            R P                                                                                                N                            336005651298148002787921                        TAMPA FL 336                                                STD LTR 3D CR-RT BC                               TAMPA FL 33634                                                                                                565                                20230201202302012023010120230101202302012023020120221201                       O                                       #
69558FIR0001E 000010000009         346   C 335   C LOCY23078336305009000001                                     20230223                           2023022311:41                          20230223     0000117200001172000000291828            R P                                                                                                N                            346005651298148002787931                        TAMPA FL 346                                                STD LTR 3D CR-RT BC                               TAMPA FL 33634                                                                                                565                                20230201202302012023010120230101202302012023020120221201                       O                                       #
69558FIR0001O 000011000010         33602 P 335   C LOCY23078336305009000001                                     20230223                           2023022311:41                          20230223     0000050700000507000000126243            R P                                                                                                N                            336025411298148002787941                        TAMPA FL 33602                                              STD LTR BC 5D SCHEME                              TAMPA FL 33634                                                                                                541                                20230201202302012023010120230101202302012023020120221201                       O                                       #
69558FIR0001O 000012000011         33603 P 335   C LOCY23078336305009000001                                     20230223                           2023022311:41                          20230223     0000018600000186000000046314            R P                                                                                                N                            336035411298148002787951                        TAMPA FL 33603                                              STD LTR BC 5D SCHEME                              TAMPA FL 33634                                                                                                541                                20230201202302012023010120230101202302012023020120221201                       O                                       #
69558FIR0001E 000013000012         33606 P 335   C LOCY23078336305009000001                                     20230223                           2023022311:41                          20230223     0000132100001321000000328929            R P                                                                                                N                            336065411298148002787961                        TAMPA FL 33606                                              STD LTR BC 5D SCHEME                              TAMPA FL 33634                                                                                                541                                20230201202302012023010120230101202302012023020120221201                       O                                       #
69558FIR0001O 000014000013         33606 P 335   C LOCY23078336305009000001                                     20230223                           2023022311:41                          20230223     0000061900000619000000154131            R P                                                                                                N                            336065411298148002787971                        TAMPA FL 33606                                              STD LTR BC 5D SCHEME                              TAMPA FL 33634                                                                                                541                                20230201202302012023010120230101202302012023020120221201                       O                                       #
69558FIR0001O 000015000014         33614 J 335   C LOCY23078336305009000001                                     20230223                           2023022311:41                          20230223     0000048100000481000000119769            R P                                                                                                N                            336145421298148002787981                        TAMPA FL 33614                                              STD LTR 5D BC                                     TAMPA FL 33634                                                                                                542                                20230201202302012023010120230101202302012023020120221201                       O                                       #
69558FIR0001O 000016000015         335   AA335   C LOCY23078336305009000001                                     20230223                           2023022311:41                          20230223     0000054500000545000000135705            R P                                                                                                N                            335005451298148002787991                        AADC TAMPA FL 335                                           STD LTR AADC BC                                   TAMPA FL 33634                                                                                                545                                20230201202302012023010120230101202302012023020120221201                       O                                       #
69558FIR0001P 000017000002         337   U 342   S LOCY22324342605000                                           20230223                           2023022311:41                          20230223     0003248100032481000008087769000000000017R N                                                                                                N                            99M298148000000278865                           MANASOTA FL 337                                             STD LTRS 3D BC                                                                                                                                                                          Y          20230201202302012023010120230101202302012023020120221201                       O                                       #
69558FIR0001O 000018000016         33702 B 342   S LOCY22324342605000000017                                     20230223                           2023022311:41                          20230223     0000067100000671000000167079            R P                                                                                                N                            337025641298148002788001                        SAINT PETERSBURG FL 33702                                   STD LTR 5D CR-RT BC                               TAMPA FL 33634                                                                                                564                                20230201202302012023010120230101202302012023020120221201                       O                                       #
69558FIR0001E 000019000017         33703 B 342   S LOCY22324342605000000017                                     20230223                           2023022311:41                          20230223     0000118500001185000000295065            R P                                                                                                N                            337035641298148002788011                        SAINT PETERSBURG FL 33703                                   STD LTR 5D CR-RT BC                               TAMPA FL 33634                                                                                                564                                20230201202302012023010120230101202302012023020120221201                       O                                       #
69558FIR0001E 000020000018         33704 B 342   S LOCY22324342605000000017                                     20230223                           2023022311:41                          20230223     0000155300001553000000386697            R P                                                                                                N                            337045641298148002788021                        SAINT PETERSBURG FL 33704                                   STD LTR 5D CR-RT BC                               TAMPA FL 33634                                                                                                564                                20230201202302012023010120230101202302012023020120221201                       O                                       #
69558FIR0001E 000021000019         33708 B 342   S LOCY22324342605000000017                                     20230223                           2023022311:41                          20230223     0000109600001096000000272904            R P                                                                                                N                            337085641298148002788031                        SAINT PETERSBURG FL 33708                                   STD LTR 5D CR-RT BC                               TAMPA FL 33634                                                                                                564                                20230201202302012023010120230101202302012023020120221201                       O                                       #
69558FIR0001E 000022000020         33709 B 342   S LOCY22324342605000000017                                     20230223                           2023022311:41                          20230223     0000133400001334000000332166            R P                                                                                                N                            337095641298148002788041                        SAINT PETERSBURG FL 33709                                   STD LTR 5D CR-RT BC                               TAMPA FL 33634                                                                                                564                                20230201202302012023010120230101202302012023020120221201                       O                                       #
69558FIR0001E 000023000021         33709 B 342   S LOCY22324342605000000017                                     20230223                           2023022311:41                          20230223     0000132100001321000000328929            R P                                                                                                N                            337095641298148002788051                        SAINT PETERSBURG FL 33709                                   STD LTR 5D CR-RT BC                               TAMPA FL 33634                                                                                                564                                20230201202302012023010120230101202302012023020120221201                       O                                       #
69558FIR0001E 000024000022         33713 B 342   S LOCY22324342605000000017                                     20230223                           2023022311:41                          20230223     0000155300001553000000386697            R P                                                                                                N                            337135641298148002788061                        SAINT PETERSBURG FL 33713                                   STD LTR 5D CR-RT BC                               TAMPA FL 33634                                                                                                564                                20230201202302012023010120230101202302012023020120221201                       O                                       #
69558FIR0001E 000025000023         33714 B 342   S LOCY22324342605000000017                                     20230223                           2023022311:41                          20230223     0000103100001031000000256719            R P                                                                                                N                            337145641298148002788071                        SAINT PETERSBURG FL 33714                                   STD LTR 5D CR-RT BC                               TAMPA FL 33634                                                                                                564                                20230201202302012023010120230101202302012023020120221201                       O                                       #
69558FIR0001E 000026000024         33759 B 342   S LOCY22324342605000000017                                     20230223                           2023022311:41                          20230223     0000132000001320000000328680            R P                                                                                                N                            337595641298148002788081                        CLEARWATER FL 33759                                         STD LTR 5D CR-RT BC                               TAMPA FL 33634                                                                                                564                                20230201202302012023010120230101202302012023020120221201                       O                                       #
69558FIR0001E 000027000025         33761 B 342   S LOCY22324342605000000017                                     20230223                           2023022311:41                          20230223     0000155300001553000000386697            R P                                                                                                N                            337615641298148002788091                        CLEARWATER FL 33761                                         STD LTR 5D CR-RT BC                               TAMPA FL 33634                                                                                                564                                20230201202302012023010120230101202302012023020120221201                       O                                       #
69558FIR0001E 000028000026         33763 B 342   S LOCY22324342605000000017                                     20230223                           2023022311:41                          20230223     0000154800001548000000385452            R P                                                                                                N                            337635641298148002788101                        CLEARWATER FL 33763                                         STD LTR 5D CR-RT BC                               TAMPA FL 33634                                                                                                564                                20230201202302012023010120230101202302012023020120221201                       O                                       #
69558FIR0001O 000029000027         33765 B 342   S LOCY22324342605000000017                                     20230223                           2023022311:41                          20230223     0000071100000711000000177039            R P                                                                                                N                            337655641298148002788111                        CLEARWATER FL 33765                                         STD LTR 5D CR-RT BC                               TAMPA FL 33634                                                                                                564                                20230201202302012023010120230101202302012023020120221201                       O                                       #
69558FIR0001E 000030000028         33770 B 342   S LOCY22324342605000000017                                     20230223                           2023022311:41                          20230223     0000132100001321000000328929            R P                                                                                                N                            337705641298148002788121                        LARGO FL 33770                                              STD LTR 5D CR-RT BC                               TAMPA FL 33634                                                                                                564                                20230201202302012023010120230101202302012023020120221201                       O                                       #
69558FIR0001E 000031000029         33770 B 342   S LOCY22324342605000000017                                     20230223                           2023022311:41                          20230223     0000155300001553000000386697            R P                                                                                                N                            337705641298148002788131                        LARGO FL 33770                                              STD LTR 5D CR-RT BC                               TAMPA FL 33634                                                                                                564                                20230201202302012023010120230101202302012023020120221201                       O                                       #
69558FIR0001E 000032000030         33772 B 342   S LOCY22324342605000000017                                     20230223                           2023022311:41                          20230223     0000132100001321000000328929            R P                                                                                                N                            337725641298148002788141                        SEMINOLE FL 33772                                           STD LTR 5D CR-RT BC                               TAMPA FL 33634                                                                                                564                                20230201202302012023010120230101202302012023020120221201                       O                                       #
69558FIR0001E 000033000031         33772 B 342   S LOCY22324342605000000017                                     20230223                           2023022311:41                          20230223     0000155300001553000000386697            R P                                                                                                N                            337725641298148002788151                        SEMINOLE FL 33772                                           STD LTR 5D CR-RT BC                               TAMPA FL 33634                                                                                                564                                20230201202302012023010120230101202302012023020120221201                       O                                       #
69558FIR0001E 000034000032         33773 B 342   S LOCY22324342605000000017                                     20230223                           2023022311:41                          20230223     0000155300001553000000386697            R P                                                                                                N                            337735641298148002788161                        LARGO FL 33773                                              STD LTR 5D CR-RT BC                               TAMPA FL 33634                                                                                                564                                20230201202302012023010120230101202302012023020120221201                       O                                       #
69558FIR0001E 000035000033         33776 B 342   S LOCY22324342605000000017                                     20230223                           2023022311:41                          20230223     0000124900001249000000311001            R P                                                                                                N                            337765641298148002788171                        SEMINOLE FL 33776                                           STD LTR 5D CR-RT BC                               TAMPA FL 33634                                                                                                564                                20230201202302012023010120230101202302012023020120221201                       O                                       #
69558FIR0001E 000036000034         33777 B 342   S LOCY22324342605000000017                                     20230223                           2023022311:41                          20230223     0000132100001321000000328929            R P                                                                                                N                            337775641298148002788181                        SEMINOLE FL 33777                                           STD LTR 5D CR-RT BC                               TAMPA FL 33634                                                                                                564                                20230201202302012023010120230101202302012023020120221201                       O                                       #
69558FIR0001E 000037000035         33777 B 342   S LOCY22324342605000000017                                     20230223                           2023022311:41                          20230223     0000155300001553000000386697            R P                                                                                                N                            337775641298148002788191                        SEMINOLE FL 33777                                           STD LTR 5D CR-RT BC                               TAMPA FL 33634                                                                                                564                                20230201202302012023010120230101202302012023020120221201                       O                                       #
69558FIR0001E 000038000036         33778 B 342   S LOCY22324342605000000017                                     20230223                           2023022311:41                          20230223     0000155300001553000000386697            R P                                                                                                N                            337785641298148002788201                        LARGO FL 33778                                              STD LTR 5D CR-RT BC                               TAMPA FL 33634                                                                                                564                                20230201202302012023010120230101202302012023020120221201                       O                                       #
69558FIR0001E 000039000037         33781 B 342   S LOCY22324342605000000017                                     20230223                           2023022311:41                          20230223     0000155300001553000000386697            R P                                                                                                N                            337815641298148002788211                        PINELLAS PARK FL 33781                                      STD LTR 5D CR-RT BC                               TAMPA FL 33634                                                                                                564                                20230201202302012023010120230101202302012023020120221201                       O                                       #
69558FIR0001E 000040000038         33781 B 342   S LOCY22324342605000000017                                     20230223                           2023022311:41                          20230223     0000152200001522000000378978            R P                                                                                                N                            337815641298148002788221                        PINELLAS PARK FL 33781                                      STD LTR 5D CR-RT BC                               TAMPA FL 33634                                                                                                564                                20230201202302012023010120230101202302012023020120221201                       O                                       #
69558FIR0001E 000041000039         33782 B 342   S LOCY22324342605000000017                                     20230223                           2023022311:41                          20230223     0000155300001553000000386697            R P                                                                                                N                            337825641298148002788231                        PINELLAS PARK FL 33782                                      STD LTR 5D CR-RT BC                               TAMPA FL 33634                                                                                                564                                20230201202302012023010120230101202302012023020120221201                       O                                       #
69558FIR0001P 000042000003         342   U 342   S LOCY22324342605000                                           20230223                           2023022311:41                          20230223     0001576000015760000003924240000000000042R N                                                                                                N                            99M298148000000278866                           MANASOTA FL 342                                             STD LTRS 3D BC                                                                                                                                                                          Y          20230201202302012023010120230101202302012023020120221201                       O                                       #
69558FIR0001E 000043000040         34205 B 342   S LOCY22324342605000000042                                     20230223                           2023022311:41                          20230223     0000130500001305000000324945            R P                                                                                                N                            342055641298148002788241                        BRADENTON FL 34205                                          STD LTR 5D CR-RT BC                               TAMPA FL 33634                                                                                                564                                20230201202302012023010120230101202302012023020120221201                       O                                       #
69558FIR0001E 000044000041         34209 B 342   S LOCY22324342605000000042                                     20230223                           2023022311:41                          20230223     0000132100001321000000328929            R P                                                                                                N                            342095641298148002788251                        BRADENTON FL 34209                                          STD LTR 5D CR-RT BC                               TAMPA FL 33634                                                                                                564                                20230201202302012023010120230101202302012023020120221201                       O                                       #
69558FIR0001E 000045000042         34209 B 342   S LOCY22324342605000000042                                     20230223                           2023022311:41                          20230223     0000132100001321000000328929            R P                                                                                                N                            342095641298148002788261                        BRADENTON FL 34209                                          STD LTR 5D CR-RT BC                               TAMPA FL 33634                                                                                                564                                20230201202302012023010120230101202302012023020120221201                       O                                       #
69558FIR0001E 000046000043         34209 B 342   S LOCY22324342605000000042                                     20230223                           2023022311:41                          20230223     0000155300001553000000386697            R P                                                                                                N                            342095641298148002788271                        BRADENTON FL 34209                                          STD LTR 5D CR-RT BC                               TAMPA FL 33634                                                                                                564                                20230201202302012023010120230101202302012023020120221201                       O                                       #
69558FIR0001E 000047000044         34232 B 342   S LOCY22324342605000000042                                     20230223                           2023022311:41                          20230223     0000132100001321000000328929            R P                                                                                                N                            342325641298148002788281                        SARASOTA FL 34232                                           STD LTR 5D CR-RT BC                               TAMPA FL 33634                                                                                                564                                20230201202302012023010120230101202302012023020120221201                       O                                       #
69558FIR0001E 000048000045         34232 B 342   S LOCY22324342605000000042                                     20230223                           2023022311:41                          20230223     0000155300001553000000386697            R P                                                                                                N                            342325641298148002788291                        SARASOTA FL 34232                                           STD LTR 5D CR-RT BC                               TAMPA FL 33634                                                                                                564                                20230201202302012023010120230101202302012023020120221201                       O                                       #
69558FIR0001E 000049000046         34233 B 342   S LOCY22324342605000000042                                     20230223                           2023022311:41                          20230223     0000155300001553000000386697            R P                                                                                                N                            342335641298148002788301                        SARASOTA FL 34233                                           STD LTR 5D CR-RT BC                               TAMPA FL 33634                                                                                                564                                20230201202302012023010120230101202302012023020120221201                       O                                       #
69558FIR0001E 000050000047         34234 B 342   S LOCY22324342605000000042                                     20230223                           2023022311:41                          20230223     0000145000001450000000361050            R P                                                                                                N                            342345641298148002788311                        SARASOTA FL 34234                                           STD LTR 5D CR-RT BC                               TAMPA FL 33634                                                                                                564                                20230201202302012023010120230101202302012023020120221201                       O                                       #
69558FIR0001E 000051000048         34235 B 342   S LOCY22324342605000000042                                     20230223                           2023022311:41                          20230223     0000108500001085000000270165            R P                                                                                                N                            342355641298148002788321                        SARASOTA FL 34235                                           STD LTR 5D CR-RT BC                               TAMPA FL 33634                                                                                                564                                20230201202302012023010120230101202302012023020120221201                       O                                       #
69558FIR0001E 000052000049         34237 B 342   S LOCY22324342605000000042                                     20230223                           2023022311:41                          20230223     0000116800001168000000290832            R P                                                                                                N                            342375641298148002788331                        SARASOTA FL 34237                                           STD LTR 5D CR-RT BC                               TAMPA FL 33634                                                                                                564                                20230201202302012023010120230101202302012023020120221201                       O                                       #
69558FIR0001E 000053000050         34239 B 342   S LOCY22324342605000000042                                     20230223                           2023022311:41                          20230223     0000121400001214000000302286            R P                                                                                                N                            342395641298148002788341                        SARASOTA FL 34239                                           STD LTR 5D CR-RT BC                               TAMPA FL 33634                                                                                                564                                20230201202302012023010120230101202302012023020120221201                       O                                       #
69558FIR0001E 000054000051         34241 B 342   S LOCY22324342605000000042                                     20230223                           2023022311:41                          20230223     0000091600000916000000228084            R P                                                                                                N                            342415641298148002788351                        SARASOTA FL 34241                                           STD LTR 5D CR-RT BC                               TAMPA FL 33634                                                                                                564                                20230201202302012023010120230101202302012023020120221201                       O                                       #
69558FIR0001P 000055000004         342   X 342   S LOCY22324342605000                                           20230223                           2023022311:41                          20230223     0002434500024345000006061905000000000055R N                                                                                                N                            99M298148000000278867                           SCF MANASOTA FL 342                                         STD LTRS SCF BC                                                                                                                                                                         Y          20230201202302012023010120230101202302012023020120221201                       O                                       #
69558FIR0001O 000056000052         34232 A 342   S LOCY22324342605000000055                                     20230223                           2023022311:41                          20230223     0000067900000679000000169071            R P                                                                                                N                            342325571298148002788361                        SARASOTA FL 34232                                           STD LTR BC WSS C045                               TAMPA FL 33634                                                                                                557                                20230201202302012023010120230101202302012023020120221201                       O                                       #
69558FIR0001E 000057000053         337   C 342   S LOCY22324342605000000055                                     20230223                           2023022311:41                          20230223     0000140300001403000000349347            R P                                                                                                N                            337005651298148002788371                        MANASOTA FL 337                                             STD LTR 3D CR-RT BC                               TAMPA FL 33634                                                                                                565                                20230201202302012023010120230101202302012023020120221201                       O                                       #
69558FIR0001E 000058000054         337   C 342   S LOCY22324342605000000055                                     20230223                           2023022311:41                          20230223     0000140200001402000000349098            R P                                                                                                N                            337005651298148002788381                        MANASOTA FL 337                                             STD LTR 3D CR-RT BC                               TAMPA FL 33634                                                                                                565                                20230201202302012023010120230101202302012023020120221201                       O                                       #
69558FIR0001E 000059000055         337   C 342   S LOCY22324342605000000055                                     20230223                           2023022311:41                          20230223     0000140300001403000000349347            R P                                                                                                N                            337005651298148002788391                        MANASOTA FL 337                                             STD LTR 3D CR-RT BC                               TAMPA FL 33634                                                                                                565                                20230201202302012023010120230101202302012023020120221201                       O                                       #
69558FIR0001E 000060000056         337   C 342   S LOCY22324342605000000055                                     20230223                           2023022311:41                          20230223     0000140200001402000000349098            R P                                                                                                N                            337005651298148002788401                        MANASOTA FL 337                                             STD LTR 3D CR-RT BC                               TAMPA FL 33634                                                                                                565                                20230201202302012023010120230101202302012023020120221201                       O                                       #
69558FIR0001E 000061000057         337   C 342   S LOCY22324342605000000055                                     20230223                           2023022311:41                          20230223     0000140300001403000000349347            R P                                                                                                N                            337005651298148002788411                        MANASOTA FL 337                                             STD LTR 3D CR-RT BC                               TAMPA FL 33634                                                                                                565                                20230201202302012023010120230101202302012023020120221201                       O                                       #
69558FIR0001E 000062000058         337   C 342   S LOCY22324342605000000055                                     20230223                           2023022311:41                          20230223     0000132700001327000000330423            R P                                                                                                N                            337005651298148002788421                        MANASOTA FL 337                                             STD LTR 3D CR-RT BC                               TAMPA FL 33634                                                                                                565                                20230201202302012023010120230101202302012023020120221201                       O                                       #
69558FIR0001E 000063000059         342   C 342   S LOCY22324342605000000055                                     20230223                           2023022311:41                          20230223     0000143100001431000000356319            R P                                                                                                N                            342005651298148002788431                        MANASOTA FL 342                                             STD LTR 3D CR-RT BC                               TAMPA FL 33634                                                                                                565                                20230201202302012023010120230101202302012023020120221201                       O                                       #
69558FIR0001E 000064000060         342   C 342   S LOCY22324342605000000055                                     20230223                           2023022311:41                          20230223     0000155300001553000000386697            R P                                                                                                N                            342005651298148002788441                        MANASOTA FL 342                                             STD LTR 3D CR-RT BC                               TAMPA FL 33634                                                                                                565                                20230201202302012023010120230101202302012023020120221201                       O                                       #
69558FIR0001O 000065000061         342   C 342   S LOCY22324342605000000055                                     20230223                           2023022311:41                          20230223     0000010500000105000000026145            R P                                                                                                N                            342005651298148002788451                        MANASOTA FL 342                                             STD LTR 3D CR-RT BC                               TAMPA FL 33634                                                                                                565                                20230201202302012023010120230101202302012023020120221201                       O                                       #
69558FIR0001E 000066000062         33701 J 342   S LOCY22324342605000000055                                     20230223                           2023022311:41                          20230223     0000122600001226000000305274            R P                                                                                                N                            337015421298148002788461                        SAINT PETERSBURG FL 33701                                   STD LTR 5D BC                                     TAMPA FL 33634                                                                                                542                                20230201202302012023010120230101202302012023020120221201                       O                                       #
69558FIR0001O 000067000063         33704 J 342   S LOCY22324342605000000055                                     20230223                           2023022311:41                          20230223     0000054800000548000000136452            R P                                                                                                N                            337045421298148002788471                        SAINT PETERSBURG FL 33704                                   STD LTR 5D BC                                     TAMPA FL 33634                                                                                                542                                20230201202302012023010120230101202302012023020120221201                       O                                       #
69558FIR0001E 000068000064         33705 P 342   S LOCY22324342605000000055                                     20230223                           2023022311:41                          20230223     0000133300001333000000331917            R P                                                                                                N                            337055411298148002788481                        SAINT PETERSBURG FL 33705                                   STD LTR BC 5D SCHEME                              TAMPA FL 33634                                                                                                541                                20230201202302012023010120230101202302012023020120221201                       O                                       #
69558FIR0001O 000069000065         33707 P 342   S LOCY22324342605000000055                                     20230223                           2023022311:41                          20230223     0000026700000267000000066483            R P                                                                                                N                            337075411298148002788491                        SAINT PETERSBURG FL 33707                                   STD LTR BC 5D SCHEME                              TAMPA FL 33634                                                                                                541                                20230201202302012023010120230101202302012023020120221201                       O                                       #
69558FIR0001E 000070000066         33713 P 342   S LOCY22324342605000000055                                     20230223                           2023022311:41                          20230223     0000119700001197000000298053            R P                                                                                                N                            337135411298148002788501                        SAINT PETERSBURG FL 33713                                   STD LTR BC 5D SCHEME                              TAMPA FL 33634                                                                                                541                                20230201202302012023010120230101202302012023020120221201                       O                                       #
69558FIR0001O 000071000067         33756 P 342   S LOCY22324342605000000055                                     20230223                           2023022311:41                          20230223     0000049500000495000000123255            R P                                                                                                N                            337565411298148002788511                        CLEARWATER FL 33756                                         STD LTR BC 5D SCHEME                              TAMPA FL 33634                                                                                                541                                20230201202302012023010120230101202302012023020120221201                       O                                       #
69558FIR0001E 000072000068         33761 P 342   S LOCY22324342605000000055                                     20230223                           2023022311:41                          20230223     0000107100001071000000266679            R P                                                                                                N                            337615411298148002788521                        CLEARWATER FL 33761                                         STD LTR BC 5D SCHEME                              TAMPA FL 33634                                                                                                541                                20230201202302012023010120230101202302012023020120221201                       O                                       #
69558FIR0001O 000073000069         33770 P 342   S LOCY22324342605000000055                                     20230223                           2023022311:41                          20230223     0000048000000480000000119520            R P                                                                                                N                            337705411298148002788531                        LARGO FL 33770                                              STD LTR BC 5D SCHEME                              TAMPA FL 33634                                                                                                541                                20230201202302012023010120230101202302012023020120221201                       O                                       #
69558FIR0001O 000074000070         33772 P 342   S LOCY22324342605000000055                                     20230223                           2023022311:41                          20230223     0000037300000373000000092877            R P                                                                                                N                            337725411298148002788541                        SEMINOLE FL 33772                                           STD LTR BC 5D SCHEME                              TAMPA FL 33634                                                                                                541                                20230201202302012023010120230101202302012023020120221201                       O                                       #
69558FIR0001O 000075000071         33781 P 342   S LOCY22324342605000000055                                     20230223                           2023022311:41                          20230223     0000070500000705000000175545            R P                                                                                                N                            337815411298148002788551                        PINELLAS PARK FL 33781                                      STD LTR BC 5D SCHEME                              TAMPA FL 33634                                                                                                541                                20230201202302012023010120230101202302012023020120221201                       O                                       #
69558FIR0001O 000076000072         34207 P 342   S LOCY22324342605000000055                                     20230223                           2023022311:41                          20230223     0000016700000167000000041583            R P                                                                                                N                            342075411298148002788561                        BRADENTON FL 34207                                          STD LTR BC 5D SCHEME                              TAMPA FL 33634                                                                                                541                                20230201202302012023010120230101202302012023020120221201                       O                                       #
69558FIR0001O 000077000073         34209 P 342   S LOCY22324342605000000055                                     20230223                           2023022311:41                          20230223     0000027700000277000000068973            R P                                                                                                N                            342095411298148002788571                        BRADENTON FL 34209                                          STD LTR BC 5D SCHEME                              TAMPA FL 33634                                                                                                541                                20230201202302012023010120230101202302012023020120221201                       O                                       #
69558FIR0001O 000078000074         34232 P 342   S LOCY22324342605000000055                                     20230223                           2023022311:41                          20230223     0000072000000720000000179280            R P                                                                                                N                            342325411298148002788581                        SARASOTA FL 34232                                           STD LTR BC 5D SCHEME                              TAMPA FL 33634                                                                                                541                                20230201202302012023010120230101202302012023020120221201                       O                                       #
69558FIR0001O 000079000075         34234 P 342   S LOCY22324342605000000055                                     20230223                           2023022311:41                          20230223     0000068700000687000000171063            R P                                                                                                N                            342345411298148002788591                        SARASOTA FL 34234                                           STD LTR BC 5D SCHEME                              TAMPA FL 33634                                                                                                541                                20230201202302012023010120230101202302012023020120221201                       O                                       #
69558FIR0001E 000080000076         34236 P 342   S LOCY22324342605000000055                                     20230223                           2023022311:41                          20230223     0000137200001372000000341628            R P                                                                                                N                            342365411298148002788601                        SARASOTA FL 34236                                           STD LTR BC 5D SCHEME                              TAMPA FL 33634                                                                                                541                                20230201202302012023010120230101202302012023020120221201                       O                                       #
69558FIR0001O 000081000077         34238 P 342   S LOCY22324342605000000055                                     20230223                           2023022311:41                          20230223     0000015800000158000000039342            R P                                                                                                N                            342385411298148002788611                        SARASOTA FL 34238                                           STD LTR BC 5D SCHEME                              TAMPA FL 33634                                                                                                541                                20230201202302012023010120230101202302012023020120221201                       O                                       #
69558FIR0001O 000082000078         34239 P 342   S LOCY22324342605000000055                                     20230223                           2023022311:41                          20230223     0000048200000482000000120018            R P                                                                                                N                            342395411298148002788621                        SARASOTA FL 34239                                           STD LTR BC 5D SCHEME                              TAMPA FL 33634                                                                                                541                                20230201202302012023010120230101202302012023020120221201                       O                                       #
69558FIR0001O 000083000079         342   AA342   S LOCY22324342605000000055                                     20230223                           2023022311:41                          20230223     0000067900000679000000169071            R P                                                                                                N                            342005451298148002788631                        AADC MANASOTA FL 342                                        STD LTR AADC BC                                   TAMPA FL 33634                                                                                                545                                20230201202302012023010120230101202302012023020120221201                       O                                       #
